:020000040800F2
:100000000080002041290008510800085508000818
:10001000590800085D080008610800080000000099
:10002000000000000000000000000000650800085B
:1000300069080008000000006D0800087108000849
:1000400091290008912900089129000891290008A8
:100050009129000891290008912900089129000898
:100060009129000891290008912900089129000888
:100070009129000891290008912900089129000878
:100080009129000800000000912900088D0800084F
:1000900081080008990800089129000891290008A2
:1000A0009129000891290008912900089129000848
:1000B0009129000891290008912900089129000838
:1000C0009129000891290008912900089129000828
:1000D0009129000891290008912900089129000818
:1000E0009129000891290008912900089129000808
:1000F00091290008912900089129000800000000BA
:10010000000000009129000800000000912900086B
:100110009129000800000000912900089129000899
:1001200091290008912900089129000891290008C7
:10013000912900080000000000000000912900083B
:10014000912900089129000800000000000000002B
:10015000000000000000000000000000000000009F
:1001600000000000000000000000000091290008CD
:1001700091290008000000000000000000000000BD
:1001800000000000912900080000000000000000AD
:10019000000000000000000000000000000000005F
:1001A00000000000000000009129000891290008CB
:1001B00091290008912900089129000800000000F9
:1001C000000000009129000800000000000000006D
:0801D0009129000891290008A3
:1001E00010B5054C237833B9044B13B10448AFF371
:1001F00000800123237010BD0002002000000000D9
:100200003090000808B5034B1BB103490348AFF316
:10021000008008BD000000000402002030900008AB
:10022000034613F8012B002AFBD1181A0138704736
:1002300001F0FF01102A2BDB10F0070F08D010F897
:10024000013B013A8B422DD010F0070F42B3F6D19B
:10025000F0B441EA012141EA014122F007047FF0B4
:1002600000070023F0E80256083C85EA010586EA0B
:10027000010685FA47F5A3FA87F586FA47F6A5FA47
:1002800087F68EB9EED1F0BC01F0FF0102F0070253
:1002900032B110F8013B013A83EA010313B1F8D1FE
:1002A0000020704701387047002D06BF35460338DF
:1002B000073815F0010F07D1013015F4807F02BF18
:1002C000013015F4C03F0130F0BC0138704700BF69
:1002D0002DE9F84300F06CF900B9FEE701F0AEFA41
:1002E0000028FAD002F09EF80028F6D002F0E4FFD1
:1002F00000F02EFB01F0F0FC02F04CFB1D4DDFF88E
:1003000078801E4E4FF00009012702F055FA30B1F7
:1003100001F0DAFA2F7002F04FFA0028F8D12B78AA
:1003200013B3287088F8009001F0E8FA03F0A6FFF4
:1003300004460146002001F0A9FB2146002003F0FD
:1003400085FB2146002002F04DFE2146002000F0F2
:10035000BDFE3368E31A632BD7D9346000F09AFDF1
:10036000204601F07DFCD0E798F80030002BDDD06E
:10037000D8E700BF1C02002000000020200200205F
:10038000024B4FF000629A60704700BF00ED00E042
:1003900000B51A4B986D40F0020095B098659B6DC2
:1003A00003F0020344220021009303A8009B08F0FD
:1003B000C2F9134B134A1B681349A2FB03239B0C7E
:1003C000013B4FF0FF3201A8CDE90113049207F081
:1003D0000DFB10B1002015B000BD01A807F084FB93
:1003E0000028F7D102460146152003F07DFF1520B5
:1003F00003F0B4FF012015B000BD00BF00100240A3
:100400000400002083DE1B4300040040024A1368FE
:1004100001331360704700BF240200200249034AE1
:1004200000234B6213607047000400402402002048
:1004300008B503F03FFF40F26943984207D940F204
:100440007943C01AB0FA80F04009400008BDB0F509
:100450008D6F34BF00200120400008BD014B18689B
:10046000704700BF28020020034A044B10685B6AF3
:1004700043EA0040704700BF24020020000400400F
:10048000014B1868704700BF2402002010B58EB0E1
:1004900004463422002101A808F04DF901A805F016
:1004A0007DF8022C15D0032C0BD0012C19D1079B01
:1004B00003F4E063B3F5806F0CBF022001200EB09F
:1004C00010BD079B13F0806F0CBF022001200EB0FF
:1004D00010BD079B13F0806F14BF022001200EB0E7
:1004E00010BD00200EB010BD032852D030B58FB023
:1004F000044601F051F810B134200FB030BD03F0C4
:10050000D9FE40F26943984206D940F279439842B5
:1005100005D036200FB030BDB0F58D6FF9D3342241
:100520000021684608F007F9684605F037F8012C05
:1005300031D0022CEDD1069B5B0128D44FF4C4448A
:100540004FF048653022002101A808F0F4F8CDE909
:100550000545164B042200929A694CF2FA3142F09A
:1005600040429A61196104F083FDE8B904F0A0FDEE
:10057000D0B9684604F094FE044604F0ADFD05468B
:1005800004F08AFD2C4340EA0403DBB263B9022085
:10059000B3E736207047069B03F4E063B3F5806F42
:1005A000F5D04FF48065CDE73B20A6E70020024060
:1005B00070B5B2B003F03EFE18B10024204632B050
:1005C00070BD4A4DAB6D43F08053AB65AB6D03F02E
:1005D000805300930446009B06F016FA2A6E01260B
:1005E00032432A662A6E1494324001920223019902
:1005F0001F93032121220F20CDE91863CDE91D337C
:100600001A914FF480330321CDE91223CDE906017D
:100610004FF48063142212A8CDE91544CDE90933C3
:1006200008941B9617941C9206F0C0FA0028C4D1B7
:10063000082106A806F02AFD0028BED10146402266
:1006400022A808F078F84FF440524FF0807321A8A8
:1006500021922D9306F03AFE04460028ADD14FF0CA
:100660000053CDE90C430CA84BF67F322223CDE991
:100670000F2320238460119307F08EF9EB6C334332
:10068000EB64EB6C33400293029BEB6C43F0020390
:10069000EB64EB6C03F002030393039BEB6C43F0FE
:1006A0000403EB64EB6C03F004030493049BEB6C16
:1006B00043F02003EB64EB6C03F020032246214659
:1006C00005934FF0FF30059B03F00EFE4FF4805072
:1006D00006F04CFF064B1860FFF75AFE0446002850
:1006E0003FF46BAF3046FFF7FFFE67E700100240B4
:1006F00028020020FF2818D80D4AB2F8E0100D4A51
:100700004FF6FF7399420ED00B490C4BD1F8E01510
:1007100003EA812303F100630130A3EBC02082428E
:1007200088BF00207047064BF6E70020704700BFE7
:100730000075FF1F489000080070FF1F00FCFF03BA
:1007400000000208FF2842D82DE9F0413A4B0E463E
:10075000B3F8E010394B15464FF6FF72914286B060
:100760002BD0374A374CD2F8E02504EA822404F132
:1007700000640130A4EBC024A34224D8B5F5FA6F7D
:1007800021D823884FF6FF72934208BF00239D4271
:1007900006D12A463146A01C07F0A4FF002845D008
:1007A000294B9A6942F040429A614CF2FA321A613E
:1007B00004F05EFC68B1352006E0244C0130A4EB67
:1007C000C024A342DAD93D2006B0BDE8F0813D2027
:1007D000704704F17843DB0A049300220123CDE93A
:1007E000022301A9012302A8059304F0ABFC0746EC
:1007F000F0B9CDB13146B01CC6F108082A4607F061
:1008000081FFA04426F8085905F10904C4F3CC047B
:1008100008EB06010020F6E9022304F073FB38B967
:100820000137BBB29C42F3D804F036FC0220CBE780
:1008300004F032FCBFE700BF0075FF1F48900008BE
:100840000070FF1F00FCFF030020024000000208B0
:10085000FEE700BFFEE700BFFEE700BFFEE700BF08
:10086000FEE700BF704700BF704700BF704700BF82
:1008700008B503F0F7FCBDE8084003F097BD00BFE2
:10088000014805F0EDB900BFEC080020014805F073
:10089000E7B900BFEC08002008B5002000F0CEFE4C
:1008A000BDE8084004F06ABA70B516460546084629
:1008B0001C4601F047FAB6F1005F15D0049B73B1F6
:1008C000B4B91E23C200102894BF02F11A0102F12C
:1008D0001E01059AB2F5801F0DD0C81870BDC20068
:1008E0002CBB02F12F0070BD3CB3B4F1804F28D077
:1008F0003123C200E7E7D5E959201044D5F860213B
:1009000000FB0222104800FB02F2D5E95504204406
:100910000130B2FBF0F20D48D5F85041B2FBF4F2D1
:1009200001FB02F2A0FB020203EB924070BDB4F1A6
:10093000804F04D102F1430070BD2F2070BD3123E0
:10094000C1E7432070BD00BF40420F0083DE1B4360
:10095000F0B52B4B2B4D9A6D42F0007287B09A6523
:100960009B6D002403F000730093002200232046B7
:10097000C5E95E23C5F85041009BC5F86041C5F844
:100980008C41C5F89C4185F8704102F0DDFC1E4B9E
:100990001B68A34226DA01AE1C4A1D4B1168019167
:1009A0001C491B7808680593002402220323314662
:1009B0000292CDE9034304F07DFE174B17481B68F4
:1009C0002B60802701233146CDE90173CDE9034433
:1009D000059404F06FFE11482246394605F03AF8B6
:1009E00007B0F0BD0E4A019301AE012102911068DB
:1009F00005943146CDE9034404F05CFECCE700BF2A
:100A000000100240300200200800002014000020E6
:100A100010000020180000201C00002000040048E6
:100A20000C0000202DE9F043A14E4FF4D07303FBDE
:100A3000006383B093F87021002A70D1D3F850314D
:100A4000002B68D096F8703105460F46002B00F059
:100A5000E080284602F078FC284600F0F7FD0021EF
:100A6000084600F07DFF934A4FF4D07305FB03F373
:100A7000525DF41802F00102227403F5BC710122E8
:100A8000A2747018002262606274E263E7607158B9
:100A9000406830333344C3E90110A260D4F85421D4
:100AA000E261D4F86031D4F85821D4F850112262B0
:100AB000D4F85C216161A261002B40F08680FFF7D1
:100AC000CDFC7D4B984222D94FF4D07305FB03F344
:100AD000F41803F5B871D4E955321A44D4F85031FA
:100AE00002FB0333754AA2FB0020754A00274FF42E
:100AF0007A7C800C0CFB03F3B3FBF0F32046C4F8C4
:100B00008431575284F8717103F056FC58B1352086
:100B100003B0BDE8F0833A2003B0BDE8F083342091
:100B200003B0BDE8F0830146204603F001FE002833
:100B3000EDD10221204603F00FFE0028E7D101226B
:100B40001021204604F074F802460028DFD14FF44B
:100B50006041204604F082F807460028D7D120469D
:100B600003F032FED4F86031C4F894717BB1D4E95B
:100B700059210A4402FB03333221524A03FB01F19B
:100B8000A2FB012149094B1E3E2B40F281804FF40C
:100B9000D07305FB03F3F218D2E95E1201EB0209F0
:100BA000B9F1000F55DD6433F7184FF0000805E088
:100BB00008F10108C14507F118074AD03946204617
:100BC00003F068FD0028F3D0A1E7FFF747FCD4E964
:100BD00059C1D4F85031D4F860E1B0FBFEF70CEB0A
:100BE00001020132B7FBF2F713BBBB422CBF4FF43B
:100BF00080774FF440774FF4D07303FB0563D3F84D
:100C00006C219F60C3F824E0C3F82CC019639A627A
:100C100055E703F1804303F504339A6B42F0007209
:100C20009A639A6B22F000729A63FFF7F7FB10E762
:100C3000FFF714FCD4E9553213445A1CD4E958EC9C
:100C4000D4F85031D4F86811B0FBF3F3B3FBF2F3EE
:100C5000CBE74FF4D07303FB0566D6E95E3213444D
:100C60001A1E18BF0122002300931146204603F0EC
:100C70003DFD204603F0BAFD00287FF448AF014651
:100C8000284600F09DFE0123022086F8703143E7DC
:100C90003A462046C4F8941103F072FD00287FF410
:100CA00036AF204603F07EFD00283FF470AF2EE7FC
:100CB00030020020D00300203F420F0083DE1B43A0
:100CC000330200201F85EB5138B5114C94F8703178
:100CD00003B938BD2046002503F0A0FD204603F0EF
:100CE0005BFC002328460022C4E95E23C4F850516F
:100CF000C4F86051C4F88C51C4F89C5184F8705108
:100D000002F022FB28460121BDE8384000F058BE21
:100D100030020020F8B5164F4FF4D07400FB04F4F5
:100D20003D1995F8703103B9F8BD0646284603F021
:100D300075FD04F5BC74284603F02EFC3C440023EA
:100D400000210020C5F85031C5F86031C4E9000128
:100D50003046C5F88C31C5F89C3185F8703102F009
:100D6000F3FA30460121BDE8F84000F029BE00BF8B
:100D7000300200202DE9F8432A4C4FF4D07505FBD2
:100D800000450646D5F860810F469146B8F1000F40
:100D900013D1D5F85031FBB900237B614FF4D073E8
:100DA00003FB06444A463946204603F0A7FD30BB04
:100DB000237C012B2AD0BDE8F883FFF74FFBD5E950
:100DC000593213445A1CD5F85031D5F86011B0FB94
:100DD000F1F8B8FBF2F87BB1FFF740FB4FF4D071AC
:100DE00001FB0641D1E955321A440132D1F85031A4
:100DF000B0FBF3F3B3FBF2F34345CFD3CCE730467C
:100E00000122BDE8F843022100F030BC03F036FABD
:100E1000D4F89C31C4F898010133C4F89C31BDE882
:100E2000F88300BF3002002038B5174C4FF4D07360
:100E300003FB004494F870312BB1D4F8383194F8A6
:100E400071210BB16AB138BD002AFCD005460F49AB
:100E500084F8713102F0FCF82846BDE8384000F013
:100E6000E1BC01230A4984F8713102F0F1F807214D
:100E7000204603F0A5FD204603F0D0FC2046BDE847
:100E8000384003F0B3BC00BF30020020809000085F
:100E90006090000838B51F4C94F870314BB1D4F80D
:100EA0008C2132B1D4F890319A4203D90133C4F87D
:100EB000903138BDD4E9603000FB03F5164B6D0965
:100EC000A3FB0535ED0940F2654303FB05F5134B24
:100ED000B5FBF2F59D4213D842F20F739D4211D932
:100EE0000F4BA3FB0535C5F347352946002002F01B
:100EF0008BF80023C4F8803184F888510123D6E7A9
:100F00006325F2E794F88851002DF2D000210D46B8
:100F1000EBE700BF30020020C55A7C0A3F420F00B9
:100F20005917B7D138B54FF4D075284C05FB00F0F0
:100F300004EB000C9CF87051002D45D1551E39B3BF
:100F40001F2D3FD8591E1F293CD8049901390F295C
:100F500038D8059901390F2934D8CCE95823049B96
:100F6000CCF8683100F5B070059BCCF86C310444C6
:100F7000FFF774FAD4E9012515492368B0FBF3F3B0
:100F80002A440132B3FBF2F38B421BD8022038BD56
:100F9000B5F5007F16D2591EFF2913D804990139DF
:100FA0007F290FD8059901397F290BD8CCE9542323
:100FB000049BCCF8583100F5A870059BCCF85C3147
:100FC0000444D5E73D2038BD342038BD3002002030
:100FD000404B4C00334B1B5CDB063ED52DE9F0410A
:100FE000314D4FF4D07303FB0053B2B0DB680446BD
:100FF00013BB6E464FF4D07704FB07F707F5A872D2
:101000002A442A49304600F0C9FE3046FFF708F965
:1010100007F5B0722A443D442549304400F0BEFE35
:10102000D5F86081B8F1000F18D13146204602F0A2
:101030000FF832B0BDE8F081013B032B96BF1D4A8B
:101040001D4A52F823201D49684607F029FB6946CE
:1010500020466E4601F0FCFFCCE770473046FFF7B4
:10106000DFF8D5F850E1164D06EB000C07460FCD22
:10107000C645F051CCF80C3007F111002B88CCF8A4
:101080000410CCF808200CBF0E490F49ACF8103002
:10109000304407F07FFB3146204601F0D9FF32B0E3
:1010A000BDE8F081D003002030020020CC90000881
:1010B000D49000084C920008A8900008B89000084E
:1010C000DC900008B0900008B49000082DE9F043CF
:1010D000AC4D4FF4D07600FB06F6AF19C1B097F8CF
:1010E000703113B941B0BDE8F08304468846402210
:1010F000002117A807F01FFB03A9384603F008FDDD
:10110000F0B9A14B1B5D980703D50B9B002B40F05A
:101110002D814FF4D07303FB0453DA68002A00F0EA
:101120009C804FF4D07303FB04532046D3F89C21DA
:10113000002AC4BF02F1FF32C3E9668200F058FC06
:1011400017AB0DAA4021384603F04AFC002800F0F6
:10115000CB8017AB0DAA4121384603F041FCA0B962
:101160004FF4D07303FB0453D3F88C21002A40F0D2
:101170008B804FF4D07303FB04532046D3F88011C7
:101180001144C3F8801100F057FC4FF4D07909FBEB
:1011900004F955F809301A6DD10400F1DC801A6D9C
:1011A000520700F1CB801B6D9B0600F1908006F585
:1011B0009276A919384603F0FBFC4FF4D07303FB79
:1011C0000453D3F89C21002A05DDD3F8982102F5B9
:1011D000FA72424564D94FF4D07303FB045393F879
:1011E00073211AB993F87021002A69D14FF4D07392
:1011F00003FB045595F87431002B7FF473AFD5F8D9
:101200009431002B3FF46EAFD5F84C219342BFF4DC
:1012100069AF7E2A3FF666AF012385F87431FFF788
:101220001DF95A4B98427FF65DAFD5F89431D5F849
:101230004C21D21A564B4FF47A75A3FB00139B0C2A
:10124000544905FB02F227A8B2FBF3F207F028FA93
:1012500027A9204601F0FCFE44E7D3F88C0148B1F1
:10126000089B0193099B00930699DDE904323846F7
:10127000FFF71AFB4FF4D07303FB0453D3F880211C
:101280000244C3F880214CE7129B0193139B009307
:101290001099DDE90E323846FFF706FB024668E793
:1012A000002607213846C3F89C6103F089FB2046DD
:1012B00002F04AF832461021204600F0D7F98AE7BA
:1012C0000122204683F87321FFF784FE8EE7002277
:1012D0000121204600F0CAF94FF4D07304FB03F358
:1012E0002022EB581A6562E7FFF7CAF8149B17AA89
:1012F00043EA00430DA92046149302F021FA4FF46B
:10130000D07303FB0453D3F88C2152B1129B019389
:10131000139B00931099DDE90E323846FFF7C4FAAB
:1013200002464FF4D07303FB04532046D3F88011D8
:101330001144C3F8801100F07FFB0AE7002201216D
:10134000204600F093F94FF4D07304FB03F304221A
:10135000EB581A6527E700220221204600F086F9A3
:1013600055F809304FF480521A6518E7FFF788F8EE
:101370000A9B03A943EA004320460A9302F00EFCAD
:10138000C7E600BF30020020D00300203F420F001C
:1013900083DE1B43F09000082DE9F0414FF4D07C30
:1013A0004D4D0CFB00FC05EB0C04D4E95E7807EB1B
:1013B000080EBEF1070F26DC42EA030631B3B6F190
:1013C000005F20D294F8701100296FD0BEF1010F98
:1013D00069D1B8F1010F66D10CF5BC7CAC44002694
:1013E0000027CCE90067C4E91D23D4F87C31A3664B
:1013F0004FF0804E02210133C4E91B18C4F864E0A9
:10140000C4F87C3134E03D20BDE8F081B6F5006FD2
:10141000F9D294F8706196B90EEB4E010CEBC10154
:10142000294401204E660226C1E91B604A677A1CE6
:101430008F668B67C4F878210220BDE8F081BEF189
:10144000010F30D1B8F1010F2DD00CF5BC7CAC44AC
:1014500000260027CCE90067C4E91D23C4E919115F
:101460004FF00208C4F86C80C4F870E0C4F878E16A
:101470004FF4D07303FB00F02F18D7E95E631E44CE
:10148000002ED9DD64302C18002504E00135AE4271
:1014900004F11804D0D02146384603F0FBF80028A8
:1014A000F4D03520B0E73420BDE8F0810EEB4E01DA
:1014B0000CEBC10C05EB0C0101204A67022508F179
:1014C00001028B674FF08043C1E91B50C1F868806F
:1014D000C4F87C214B66AFE7300200204FF4D07295
:1014E000084B02FB00F01A1892F8702142B900F57F
:1014F000BC70184400220023C0E90023022070477A
:1015000034207047300200203620704738B50C4B2D
:1015100053F82030002B11DD0D460A4904462A46B7
:1015200051F8200099B204F095FA074B4FF4D072AD
:1015300002FB0433012083F8725138BD002038BD0E
:10154000080000200C00002030020020084B53F857
:101550002030002B09DD074B4FF4D07202FB003323
:10156000012093F872310B7070470020704700BF64
:101570000800002030020020642908D8054B4FF4F1
:10158000D07202FB00330220C3F88C1170473D205B
:10159000704700BF30020020014B93F87001704784
:1015A00030020020034B4FF4D07202FB003393F85B
:1015B0007001704730020020054B4FF4D07202FBDF
:1015C0000033D3F83001003818BF0120704700BF46
:1015D00030020020054B4FF4D07202FB0033D3F8E9
:1015E0006001003818BF0120704700BF30020020A2
:1015F0000A4B4FF4D07202FB003090F870314BB1BF
:10160000C368022B08D0D0F83831002B14BF382023
:101610000220704733207047392070473002002085
:1016200008B5054B4FF4D07202FB003003F0FAFA14
:10163000003818BF012008BD30020020024B4FF4D3
:10164000D07202FB0030704730020020064900EBE8
:10165000800001EB8002800000230B50C2E90133BF
:10166000C2E90333704700BFD403002000B5084B24
:1016700000EB80004FEA800E03EB800090F809C079
:1016800041EA0C01417212B1012203F80E2000BDA3
:10169000D4030020024B00EB800003EB8000704776
:1016A000DC0300202DE9F04F5C4B1B5C1B0793B063
:1016B00004D40025284613B0BDE8F08F04460F4639
:1016C000FFF770FF05460028F3D02046FFF7B6FF6E
:1016D00007A903F06DFA2046FFF7B0FF02A903F057
:1016E0008FFA0B9B4E4E4FEA84082BB104EB840318
:1016F00006EB830310221A720A9A0C9B002A3CD133
:10170000002B42D108EB040306EB83031A7A1AB9C3
:101710009A7B0AB101225A7308EB040306EB830398
:10172000029ADA729A7A039919736AB9089A12B10D
:10173000072A18BF9A72079B33B1072B04D008EB16
:10174000040206EB8202937208EB04034FEA830A59
:1017500016F8232006EB8309F2B1002306F80A30BD
:10176000A04406EB8806B068B389C6F80E00284688
:101770007760738213B0BDE8F08F08EB040206EBCC
:10178000820220211172002BC6D008EB040306EB65
:10179000830330221A72BFE70AF1080306EB030B3A
:1017A00006215846019300F0BDFA019B20B199F83B
:1017B0000D20002A3FF47DAF08EB040206EB820205
:1017C000117A302925D008EB040206EB8202526818
:1017D000BA1A632A7FF66DAF0AF10E0AF15A36F88B
:1017E0000A309942B244BBD1BBF80210BAF80230B9
:1017F00099420BF1020B0AF1020AB1D1BBF80210B7
:10180000BAF802309942ABD140F6B7339A42A7D822
:101810004FE7927B302AA3D1D5E700BFD003002049
:10182000D403002000EB8000034A800008308118B8
:10183000002313508B807047D40300202DE9F04122
:101840001D4DDFF878802A68002386B001219A4276
:10185000CDE90113CDE903336E4605DBD8F800006E
:101860000092694603F026FF154C2368002B1CDA12
:10187000144F2988D8F80000002204F0EBF82188E2
:101880003868002204F0E6F8042431464FF0904016
:10189000009403F00FFF00224FF09040214604F027
:1018A000D9F8012006B0BDE8F081064F00933868F2
:1018B000314603F0FFFEDCE720000020240000207A
:1018C000280000202C00002008B5084A084B118889
:1018D0001868012204F0BEF8064A074B1188186800
:1018E0000122BDE8084004F0B5B800BF2000002088
:1018F00024000020280000202C0000202DE9F041C9
:10190000DFF84C80134F144E144D0824B8F8001023
:101910003868002204F09EF831882868012204F01B
:1019200099F84B2002F0B0FCB8F80010386801229A
:1019300004F090F831882868002204F08BF84B20DE
:1019400002F0A2FC631E13F0FF04DFD1BDE8F081BA
:101950002000002024000020280000202C0000206F
:1019600070B5124E06EB4016337F8B421CD00546F5
:101970000C46317702F082FC0D4B33F825100D4BED
:1019800084F0010450307061224653F8250004F0C1
:1019900061F8094A094B32F8251053F82500224610
:1019A000BDE8704004F056B870BD00BFE8030020E9
:1019B0002000002024000020280000202C0000200F
:1019C000084B03EB40130A461B7F03B170470649DF
:1019D000064B31F8201053F8200082F0010204F089
:1019E00039B800BFE8030020280000202C000020A8
:1019F00070B50E4C04EB4014237F0BB9666806B13A
:101A000070BD054602F03AFCE368C01A2828F7D9F1
:101A1000074B084A53F8250032F82510324604F0E7
:101A200019F802F02BFC606070BD00BFE8030020D5
:101A30002C000020280000202DE9F041104E06EB7C
:101A400040152B7F2BB9470156F80780B8F1000FDE
:101A500001D0BDE8F081044602F010FCAB68C01A6A
:101A60002828F6D9074B33F82410074B424653F881
:101A7000240003F0EFFF02F001FCF051E9E700BFA2
:101A8000E803002020000020240000202DE9F84376
:101A9000554E06EB401504462B7F884623B16B69F3
:101AA0008B424CD9BDE8F8834701FFF7F3FD03787B
:101AB000302B2DD02046FFF7EDFD90F80190B9F1C5
:101AC000000F25D12B7C002B5CD1F359F51923B1E4
:101AD000F359A8EB03030F2B69D8F5196B6823B1F1
:101AE0006B68A8EB03030F2B6FD82046FFF75AFD56
:101AF0000028D7D13E44327F002AD3D13B4B3C490A
:101B000053F8240031F82410BDE8F84303F0A2BFD5
:101B1000384B394A53F8240032F82410002203F0DD
:101B200099FF324B324A53F8240032F824103744DC
:101B3000002203F08FFF01233B74BDE8F883AB69FB
:101B40002B492A4831F8241050F82400013303F0BF
:101B50000302013A18BF0122AB6103F07BFFAA69BF
:101B6000244B254953F8240031F8241002F00302D5
:101B7000033A18BF012203F06DFF6B6950336B61AC
:101B8000BDE8F8831C4B33F824101A4B012253F89C
:101B9000240003F05FFF164B33F82410134B01228F
:101BA00053F8240003F056FF85F810908DE7124B90
:101BB00033F824100F4B012253F8240003F04AFF9E
:101BC0000023F351C5F8088087E7094B33F8241048
:101BD000064B012253F8240003F03CFF0023C5F814
:101BE0000C806B6081E700BFE80300202C00002020
:101BF00028000020240000202000002008B5FFF766
:101C000063F80320FEF742FC022802D1104B0122A8
:101C10001A700220FEF768FC022802D0362800D095
:101C200008BD0B4B1B7873B902F028FB094B1860F9
:101C3000FEF7FEFB0138C0B2012806D8064B074A62
:101C40001A60022008BD3C2008BD362008BD00BF38
:101C5000080400200C040020100400200000FF1FD6
:101C600070B51A4C23687BB3194B1B68C01AB0F5CA
:101C7000967F29D34FF0E02300251D615D619D61B2
:101C800072B64FF0FF32C3F88021C3F88022C3F848
:101C90008421C3F88422C3F88821C3F88822C3F8BA
:101CA0008C21C3F88C2202F089FA04F01FFF094A44
:101CB000236893601A6825605B6882F30888BFF325
:101CC0006F8FBDE87040184770BD00BF1004002042
:101CD0000C04002000ED00E030B40B4A0B4B4FF435
:101CE00000704FF48071C2E9000180208021C2E9B8
:101CF00002012024202510201021C3E90045C3E95A
:101D0000020130BC704700BF2804002018040020E6
:101D100008B1024870470248704700BF180400200D
:101D20002804002000290BDD0139431E084401E08E
:101D3000834205D013F8012F002AF9D00020704704
:101D400001207047082807D9093806289ABF034B95
:101D500018564FF0FF30704740B270475C92000851
:101D600030280DD820280FD818280BD814280DD8C3
:101D700010280DD80C280DD808280DD840B270476F
:101D80000F2070470D2070470E2070470C207047C1
:101D90000B2070470A20704709207047F0B5136880
:101DA00085B00E46002B4FD05368144692684FF40E
:101DB0007A7503FB0555134401330746B5FBF3F56C
:101DC000FEF74CFBD4E9012323491A44013223686E
:101DD000B0FBF3F3B3FBF2F38B4215D8B3F57A7F84
:101DE00025D21E4A1E4C00923246A4FB0564E4082C
:101DF000019404EB8404A5EB44051A490295384686
:101E000006F04EFC05B0F0BD174A41F2C60103FBD7
:101E100002F2B1EBB21F0AD301F1864101F5DE11E6
:101E200001F6BD51A1FB0331104A8B0CDAE7104AD1
:101E3000104903FB02F2B1EBF20FD2D30E490F4A65
:101E4000A1FB03318B09CDE70D49324605B0BDE852
:101E5000F04006F025BC00BF3F420F00A8910008EB
:101E6000CDCCCCCC709100083961C2685891000883
:101E7000D578E92637894100D34D6210409100089A
:101E80005C91000830B5037803F06003202B89B023
:101E9000044625D0402B23D043B1802000F0F2FC33
:101EA000002000F0EFFC002009B030BD4378092B82
:101EB000F3D801A252F823F01F1F0008471F0008A3
:101EC0009B1E0008651F00089B1E0008771F000866
:101ED000B11F00089B1E0008E91F0008EF1E000844
:101EE000A14B20469B689847002009B030BD807800
:101EF0009E4C01282070D0D89D4D95F89C32022B25
:101F000000F00F81032B00F0FC80802000F0BAFC71
:101F1000002000F0B7FC207800F0A4FAC3E7944852
:101F200090F89C32013B022BB7D8E1880229B4D14A
:101F3000D0F8A032003B18BF01235B0040F80C3FF3
:101F400000F024FAAFE78A4A92F89C32013B022B58
:101F5000A3D84388012BA6D10023C2F8A03200F0F9
:101F600045FAA0E74388012B9DD1814AC2F8A032EF
:101F700000F03CFA97E78388002B8ED1C388002BB2
:101F80008BD143887F2B88D8794D95F89C22032AE2
:101F900083D0DCB2204685F89E4200F0A3FC00F01E
:101FA00025FA002C00F0D480022385F89C327AE7D1
:101FB0004088030A0022022BADF80A2000F09C8022
:101FC000032B2AD0012B7FF468AF12236948ADF8A8
:101FD0000A30E1880029CBD0994228BF1946ADF8D4
:101FE0000A1000F0D3F95EE7C18801297FF455AFEC
:101FF0005F4890F89C32022B08D8002B3FF44DAF7D
:10200000002340F8083F00F0C1F94CE7032B7FF4B0
:1020100044AF043000F0BAF945E7C0B2032800F23B
:102020009B80DFE800F04E532F025349D1F8900512
:10203000D1F89825D1F894355049022502440095ED
:1020400003A806F02DFB03A8FEF7EAF8431C4C4A50
:102050009DF80C005B009BB20321ADF80A301370B1
:10206000517068B129460DF10C0C00255054481CE4
:10207000C0B2023115541CF8010FC9B20028F5D1C5
:102080003F48A6E740213E4AADF80A104FF450738E
:102090003C491380002543231354431CDBB2023018
:1020A000D55411F8013FC0B2002BF5D13448E18876
:1020B00000293FF45DAFBDF80A30002B3FF4F3AECA
:1020C0008AE704233048ADF80A3082E72C4A2F48CB
:1020D0003A2140F23A33ADF80A1013804521022329
:1020E0000025D154591CC9B20233555410F8011FB0
:1020F000DBB20029F5D1D9E725488378ADF80A305D
:10210000D5E7E0B1686801283FF432AFC0B200F013
:10211000A9F92078686000F099F902287FF428AFC7
:10212000BBE600283FF424AF01200323686085F854
:102130009C3200F08BF902287FF41AAFADE602233F
:1021400085F89C32686000F08DF900F04FF9AAE63E
:10215000012385F89C32A6E60DF10A0101F09EFFED
:102160000028A4D199E600BF5401002038040020C3
:102170003C060020400100200070FF1FCC910008A9
:102180003C040020AC910008300000208C91000835
:102190000C01002010B503785A0604460BD503F055
:1021A0006002402A07D0802000F06CFB002000F085
:1021B00069FB002010BD0A4B93F89C32013B022BB7
:1021C000F1D82379012BEED8064B20469B6898471F
:1021D000E388002BEDD10028EBD100F007F9E8E708
:1021E0003C0600205401002010B5037803F0600382
:1021F000202B3AD0402B38D03BB1802000F042FB5E
:10220000002000F03FFB002010BD43788288012BA6
:10221000D1B240D0032B2DD0002BEED13C4B93F804
:102220009C0202284FD00328E7D101F00F001206CC
:1022300000EB800055D403EB8000D0F85821002A31
:10224000DBD001EB810203EB820303F5AA740029C2
:1022500055D0084600F032FB002857D001232360F8
:102260000221204600F092F8CDE72A4B9B68984760
:10227000002010BD264B93F89C32022B1AD0032B62
:10228000BBD143889BB94A0611D0C3887BB90846A5
:1022900000F0F8FA0BE01E4B93F89C32022B09D0A9
:1022A000032BAAD14388002BADD14C062AD100F0D4
:1022B0009DF8A8E74B06A0D0084600F0E3FA80207E
:1022C00000F0E0FA9FE7480697D111064CBF03F1F2
:1022D000140003F5AA7000230221036000F056F8F1
:1022E00091E703EB80029269002A86D001F07F0219
:1022F000013202EB8202802903EB8204A9D1002380
:102300002360ADE7084600F0CBFAD0E72060A7E7EE
:102310003C060020540100200B7803704B7843707A
:102320004B8843808B888380CB88C380704700BFF5
:1023300008B5802000F0A6FABDE80840002000F0B3
:10234000A1BA00BFE8B170B50E460446FDF768FFBC
:10235000431C0D4D5B009BB2032233802B706A70CF
:10236000217861B12046022300245A1CD2B2E954DC
:10237000AC5410F8011F0233DBB20029F5D102483A
:1023800070BD0148704700BF3C04002010B5064BEB
:102390000A46022401460020C3E90722C3F89442FA
:1023A00000F0AEFA002010BD3C06002008B50A4639
:1023B0000146002000F0A4FA002008BD10B5064B2D
:1023C0000A46032401460020C3E95722C3F8944279
:1023D00000F0A6FA002010BD3C06002008B50A4611
:1023E0000146002000F09CFA002008BD10B5002234
:1023F000044B042411461046C3F8944200F080FABE
:10240000002010BD3C06002010B50022044B05241E
:1024100011461046C3F8944200F082FA002010BD25
:102420003C060020084B10B5012200241C7083F8E4
:102430009C2200F0C7F908B1204610BD00F0F8F961
:10244000B0FA80F0400910BD3C06002008B5044BEE
:102450001B689847003818BF0120400008BD00BF26
:102460005401002008B5024B5B689847002008BD66
:1024700054010020014610B51448FFF74DFF1448E1
:1024800090F8A422B0F8AA12012402F01F03A3427C
:10249000C0E9A5410ED0022B06D08BB900F52970FA
:1024A000FFF7F0FC002010BD00F52970FFF79CFE3F
:1024B000002010BD00F52970FFF76CFE002010BD54
:1024C00002F0800000F0DEF9002010BDE0080020DE
:1024D0003C06002010B560B9194C0A46D4F8941295
:1024E000032913D005290DD1C4F8940200F0CAF9CC
:1024F00008E0144B9B693BB1114A92F89C22032AD5
:1025000002D19847002010BD022010BDD4E95831F7
:102510008B420AD80B4B1B6923B194F89C22032AE7
:1025200000D19847FFF762FFECE75B1A994228BF9A
:10253000194689B21046C4F86031FFF74FFFE1E752
:102540003C0600205401002038B598B92C4DD5F830
:102550009422022A1BD032F0040302D1802000F022
:1025600091F995F89F32012B0DD1002385F89F3208
:10257000002038BD234B5B693BB1214A92F89C2275
:10258000032A02D19847002038BD022038BD0B46EF
:10259000D5E908218A4223D8EB69B3FBF1F401FBAA
:1025A000143484B999420ED8D5F8982293420AD2AD
:1025B0002146FFF7FBFE224621462046C5F89842F9
:1025C00000F0AEF9CDE70F4BDB681BB195F89C220C
:1025D000032A12D0802000F055F9FFF715FFC0E75D
:1025E000521A044691B218462A62FFF7DFFE2246CD
:1025F0002146204600F094F9B3E79847EAE700BF88
:102600003C0600205401002070B500210F4C4026EC
:102610004022084600F018F90125324600218020AA
:10262000C4F85851C4F8646100F00EF9084B84F8FE
:102630009C520020A5616662C4F894026060C4F8F0
:10264000A0025B68BDE87040184700BF3C06002050
:1026500054010020014B1874002070473C060020F4
:10266000044B042293F89C1283F89D1283F89C2259
:10267000002070473C060020054B93F89C22042A5A
:1026800004BF93F89D2283F89C220020704700BF6E
:102690003C06002008B5074B93F89C32032B01D071
:1026A000002008BD044BDB69002BF9D098470020BF
:1026B00008BD00BF3C060020540100200E4A0F4B0D
:1026C00012689A4200D0704700B503F5DA3383B040
:1026D000986D40F4000098659B6D03F4000301932E
:1026E000002202211420019B01F0FEFD142003B002
:1026F0005DF804EB01F032BEEC080020005C004005
:1027000008B501F0E7FC00B108BDBDE8084001488C
:10271000FFF7B0BE840B0020044B01EB810203EBFA
:10272000C2030846D3F86411FFF7D4BEEC080020BA
:10273000044B01EB810203EBC2030846596AFFF721
:1027400003BF00BFEC080020FFF7A4BF08B50120BD
:10275000FFF780FFBDE80840FFF756BF08B5084BFC
:1027600001221A70FEF7B0FAFFF77AFF054B5B7A89
:1027700023B1054A136943F00603136108BD00BF86
:10278000E8080020EC08002000ED00E008B5074B49
:102790005B7A23B1064A136923F006031361FFF73E
:1027A0006BFF044B00221A7008BD00BFEC0800202C
:1027B00000ED00E0E8080020014B1878704700BFEA
:1027C000E808002008B506480649074A0123836047
:1027D000C0E9001203F044F9BDE8084001F030BC44
:1027E000EC080020005C00400802000270B51546AD
:1027F0000A462E6801461C469AB133442B600B48AA
:1028000043EA0643012204F0C7F82B68E01D184490
:1028100020F00700B0F5806F28608CBF00200120F9
:1028200070BD3346014804F0B7F8EEE7EC0800202D
:1028300008B5044803F0FEF918B102280CBF0120C6
:10284000022008BDEC080020844608B505480B4668
:10285000614603F099FF18B102280CBF0120022045
:1028600008BD00BFEC08002008B50146044803F08D
:10287000C1FF18B102280CBF0120022008BD00BF13
:10288000EC08002008B50146044804F017F818B118
:1028900002280CBF0120022008BD00BFEC08002068
:1028A00008B50146044804F041F818B102280CBFED
:1028B0000120022008BD00BFEC0800200206084BE2
:1028C00006D400EB800003EBC00393F8520170477D
:1028D00000F07F0000EB800003EBC003987C7047A2
:1028E000EC08002008B50146044803F039FF18B190
:1028F00002280CBF0120022008BD00BFEC08002008
:10290000844608B5054813460A46614603F0B8FFF9
:1029100018B102280CBF0120022008BDEC080020DD
:10292000844608B5054813460A46614603F090FF01
:1029300018B102280CBF0120022008BDEC080020BD
:102940000D4885460D480E490E4A002302E0D45832
:10295000C4500433C4188C42F9D30B4A0B4C0023E7
:1029600001E013600432A242FBD3FDF709FD05F03C
:10297000EBFEFDF7ADFCFEE700800020000000202C
:10298000FC010020B892000800020020005900203D
:10299000FEE70000374B70B50F221A7001F086FC7D
:1029A000354B364A1E68364C546003461C0E147074
:1029B0000020344CD0704CF63B554CF23B518642D3
:1029C000C8BF29462160190C51701B0A4FF40071D1
:1029D00093709160FFF79CF90646FDF73FFD0125D6
:1029E0007368B1683268E360C4E90105F368A36104
:1029F0002846C4E90451C4E907526562FFF788F923
:102A0000214B62685A60A4469D625CF8082B1A60EC
:102A10004268C3E90B2582685A6302681A64C26877
:102A2000DD635D6403F108049A63BCE80F000FC422
:102A30009CE80F0084E80F0001F03CFC134B144AA3
:102A4000144C1D4625F8020B03CA1288C3F8020075
:102A500069602A8107CCC3F81B00586B2488C3F82F
:102A60001F1040F00100C3F82320A3F8274058634B
:102A700070BD00BFD003002008000020E01300203C
:102A80003105260034140020EC130020A813002088
:102A9000DC910008E8910008F0B54378162B83B06C
:102AA00000F08C80132B044633D9804A1278002A18
:102AB00000F080801B2B32D87D4F01259D402F4098
:102AC00041D115F0406500F0EC804088FDF712FE22
:102AD000054600287DD00020FEF764FD38B3754E12
:102AE0000223337094F900206378002A2EDB1B2B1D
:102AF00020D8DFE803F0727F8C1F1F1F1F721F1F7B
:102B00007F1F721F1F1F1F1F1F1F1F831F818A1FF1
:102B10001F856749012202FA03F30B4213D165882E
:102B20006DB900202F46FEF73DFD0028D7D1FEF7F6
:102B300083FFD4E731233370002003B0F0BD5D4E36
:102B400032233370F8E700252F46C4E7043B162BE9
:102B5000F0D801A252F823F0132C0008932C00089F
:102B60006B2C0008352B0008352B0008352B00088E
:102B7000352B00088D2C0008352B0008792C000817
:102B8000352B0008352B0008352B0008352B0008A5
:102B9000352B0008352B0008652C0008352B000864
:102BA000352B0008352B0008352B00083F2C00087A
:102BB000252C00083F4B31221A70BDE73D4B012107
:102BC0001B788DF8043001A8FFF7E0FB012003B06B
:102BD000F0BD384E3D233370AEE70422E3889342C4
:102BE000AED320686168344B03C33448E188FFF7F3
:102BF000E5FBEBE71422F1E70122EFE71122EDE715
:102C0000E388B3F5FA6FECD9E4E70C22E6E7082293
:102C1000E4E72B482823E188994228BF1946FFF7AB
:102C2000B5FBD3E728464FF6FF7230F8023B9342DC
:102C300035D0B3F5FA6F28BF4FF4FA63EBE7012FF5
:102C40007FF47EAF0220FDF721FC28B3A0F1020340
:102C5000B3FA83F35B095B00ADF8023002230DEB9E
:102C60000300D8E717483823D5E7FDF7FDFB0190AF
:102C700004230DEB0300CEE70DF102010020FEF767
:102C800065FC48B19DF802300193F1E70E484823F6
:102C9000C1E70E480C23BEE7362333704CE7002310
:102CA000B9E7192B7FF43BAF877814E794570020DE
:102CB0006100100134000020C80B0020D00B002060
:102CC00034140020A8130020EC130020E01300208F
:102CD00030B5A94B5888597885B0C4B21B2917D88C
:102CE000DFE801F0AD182D161616165B161618162D
:102CF00066161616161616161677169C0E1616A5B6
:102D00009E4B5A88012A00F014819D4B32221A7082
:102D100005B030BD994DD5E900232046EC68134439
:102D2000A1F10A012A690194AC680094B1FA81F119
:102D30004909FEF7F7F8924B187005B030BD8F4D7A
:102D40002B68012BE1D800F08180FEF725FC8D4A2D
:102D500000B910706B68590400F1F58010781A07FB
:102D600000F103818F21CF224FF04F0C4FF00F0E57
:102D700013F0100F40F00A81834A02F804E00028A3
:102D800040F0EB802968012900F00B8139B9204619
:102D900005B0BDE83040FDF7BDBF784B196800397C
:102DA00018BF0121204605B0BDE83040FEF7D8BD70
:102DB000724B1968A1F10101B1FA81F1204649096C
:102DC000FEF7A4FB0028A3D16D4B36221A7005B084
:102DD00030BD6A4D2B780E2B97D801A252F823F004
:102DE000EB2E0008D52E0008BF2E00080B2D000882
:102DF0000B2D00080B2D00080B2D00080B2D0008D3
:102E00000B2D00080B2D0008BB2E00080F2F00080B
:102E1000F72E0008972E0008752E0008574B204605
:102E20001978FEF7A9FB564B187005B030BDDA884B
:102E30005249FDF787FC524B187005B030BD4F4A20
:102E400012684BF6EF639A42BED161E72046FEF767
:102E5000A9FB002840F0B3806B68D8057FF575AFFB
:102E60002046FEF7B7FB00287FF46FAF444B3A22B1
:102E70001A704DE70123D5F80510D5F80120CDE9EA
:102E800002216A7AA97A019300932046FEF73CFB5F
:102E90003B4B18703CE7D5F80510D5F80120CDE97B
:102EA0000221012300206A7AA97ACDE90003204695
:102EB000FEF72AFB324B18702AE70023DBE7D5F830
:102EC0000530D5F8012001212046FEF765FA2C4B8C
:102ED00018701DE7D5F80530D5F8012000212046EF
:102EE000FEF75AFA264B187012E72046FEF7F6FA5C
:102EF000234B18700CE7D5F80510D5F80120CDE963
:102F0000022100206A7AA97A01900123BCE7D5F852
:102F10000510D5F80120CDE9022100236A7AA97AAB
:102F20002046CDE900330123FEF7EEFA144B18706A
:102F3000EEE61B88052B7FF4E8AE0320FDF7D4FAFC
:102F40000F4B1870E4E60121117019070E4A22D5C3
:102F5000D80638D40E2111558E21180448BF1155BA
:102F6000117841F0100111700CE78E21CE224FF044
:102F70004E0C4FF00E0EFBE6C80B0020D00B0020CD
:102F80003400002094570020D00300201146134A3B
:102F900002F804C0F3E6D90619D40F2111558F2188
:102FA000DBE703F00201DB0715D5002914BF03217D
:102FB00002212046FDF736FD094B1870A8E6084BA4
:102FC00034221A70A4E64E211155CE21C5E74F21B7
:102FD0001155CF21C1E74900EBE700BFD003002026
:102FE0003400002010B50446FEF75CFB20B92046F3
:102FF000BDE81040FDF718BF204600F01DFE20463A
:10300000BDE81040FDF710BF38B50D4600F034FFA5
:10301000044600F54C501C3000F016FFB8B140F6E5
:1030200003730381857272B6BFF34F8FBFF36F8F47
:1030300004F5405204F54C54D2F83033C2F8300352
:103040002C34C0E90043186062B6BFF36F8F38BDFF
:103050001E4B1B5CDB0601D40020704770B50E468A
:1030600000F00AFF054600F54C501C3000F0ECFE65
:10307000044628B33046FDF7D3F84E28024621D83F
:10308000831CDBB223720E236372314604F10A0003
:1030900005F088FB72B6BFF34F8FBFF36F8F05F556
:1030A000405205F54C55D2F83033C2F830432C3538
:1030B000C4E900531C6062B6BFF36F8F012070BD7E
:1030C000002070BD024E14221623DBE7D00300203F
:1030D000F89100082DE9F04F01F54C5883B008F144
:1030E0002C0872B6BFF34F8FBFF36F8F01F54056B8
:1030F000D6F82C43A04500F0CA80002C00F0C78011
:10310000D4E900230F46536081461A6062B6BFF3CC
:103110006F8F674B1B78002B78D072B6BFF34F8F41
:10312000BFF36F8FD6F82CB3D84500F0A58062B6F8
:10313000BFF36F8F5F4A1256002A80F2A080BBF166
:10314000000F00F09C8001F54C5A0AF11C0A022580
:103150004FF48852A946A6F8342355460190C2463A
:10316000214609F54C5011F8088F3430424617FAC1
:1031700080F005F017FB08EB09021FFA82F996F8B8
:103180003423013286F8342372B6BFF34F8FBFF376
:103190006F8FD6F82023C6F82043C4E9005214608C
:1031A00062B6BFF36F8FBBF1000F28D096F83423BF
:1031B000FA2A24D89BF808204A44B2F5006F1EDA98
:1031C00072B6BFF34F8FBFF36F8FD6F82C43A24573
:1031D00063D01CB1D4E900124A60116062B6BFF33B
:1031E0006F8F72B6BFF34F8FBFF36F8FD6F82CB3CC
:1031F000DA4554D062B6BFF36F8F002CB0D107F51B
:103200004C534D463433DDF804902DE0A37C29481F
:103210009B07637CC35C4CBF5022182203F0400321
:103220004CBF4C2114219446002B07F54C530D46FE
:103230000CBF0A466546343304F10801184605F010
:10324000B1FA034672B6BFF34F8FBFF36F8FD6F854
:103250002023C6F8204307F54C571C37C4E90072F9
:10326000146062B6BFF36F8F2A461946484603B012
:10327000BDE8F04F00F076BF62B6BFF36F8F214616
:1032800007F54C5311F8085F34332A46D6E762B687
:10329000BFF36F8F03B0BDE8F08F00249EE762B6E6
:1032A000BFF36F8F002CAAD04FF0000B58E700BF80
:1032B00094570020D0030020F0B41F4F1F4EA7F1F9
:1032C0001800A7F1080206F5405CC6E90100311DAF
:1032D00047F8082CA7F110045260CCF8141301F53C
:1032E000D85506F170030A46C3E900011946136078
:1032F0006C339D42F7D143F23033CCF81813C1E957
:1033000000021160F7500E4A0E4BCCF81C53C3E973
:103310000144191D42F8047C5C330A46C3E90041AC
:103320001946136058338342F7D1CCF82013C1E912
:103330000042F0BC116070478C47002060140020F0
:1033400090470020602F002044F2343300FB03F349
:1033500070B51A4D03F54C5203F54C541032064625
:103360001434281D2C448450024405F5D85C546064
:1033700003F54C522432A91803F54C5220329C44D8
:103380008150024451600E4AD0581A1D2A442B44E1
:10339000C3E901409E466C33634502600146104616
:1033A00002F16C02F4D144F2343303FB065543F2CC
:1033B0001833E850CEE90141086070BD6014002068
:1033C0007847002044F2343C2DE9F8430CFB00FC24
:1033D00072B6BFF34F8FBFF36F8F324D43F214338A
:1033E00005EB0C04E45863442B449C4250D0002C61
:1033F0004ED0D4E9006373601E6062B6BFF36F8F76
:1034000004F1080301F12006D1F800804F68D1F8DB
:1034100008E0D1F80C90C3F80C901031B142C3F819
:1034200000805F60C3F808E003F11003ECD1096885
:10343000196004F12C0302F14001D2F800E0576852
:103440009668D2F80C80C3F80C8010328A42C3F818
:1034500000E05F609E6003F11003EED172B6BFF32F
:103460004F8FBFF36F8F44F2343303FB005343F2AB
:1034700028310CF54C5C5A585C500CF1240C654416
:10348000C4E90052146062B6BFF36F8F012007E0F9
:1034900062B6BFF36F8F01220421FEF7E7F8002028
:1034A000BDE8F883601400202DE9F0473E4B1B78FF
:1034B0008AB0CBB14B780A2B68D18846D1F803503B
:1034C0008F7891F80790044618F8080B15F0804A99
:1034D000A0F1080063D000285DDD0E7A082E28BF19
:1034E00008264FF0804A0BE04C7A002C42D14D6800
:1034F00091F800908F7A0E7A01F10C0805F0804A5D
:103500000023CDE90133CDE9053320464FF4000314
:103510000793FEF751F8002D4FEAC070BABF25F0AF
:1035200060454FF08043C5F30A05CDF82090049024
:10353000B8BF01930095BAF1000F02D04FF00053CD
:103540000293082E1FD947F002072046FEF742F8E3
:1035500080B14FF4001306937B0744BF4FF48013F0
:1035600005934246694620460396FFF72BFF0AB0B3
:10357000BDE8F087012202212046FEF777F80020FF
:103580000AB0BDE8F087BA07EBD5DEE701220221D9
:10359000FEF76CF8F3E74FF0804A0026B0E7FEF73D
:1035A000DFFBC6B2ACE700BF945700204B78102B6E
:1035B00040F0AE802DE9F04F0B788FB08A46002B9B
:1035C00000F0918000260225039061E063780A2BC9
:1035D00040F08C80E379D4F80390019304F1080360
:1035E000029319F0804394F80280A0F1080000F0E3
:1035F0008780002840F39680277ADDF80CB0082FEA
:1036000028BF08274FF080430020CDE90500CDE911
:1036100009004FF400000B9058460093FDF7CCFFD3
:10362000B9F1000F019B0C93B8BF4FF08042009B93
:10363000B8BF05924FEAC070B4BF29F06042C9F329
:103640000A020890049213B14FF000520692082F1C
:103650003CD9584648F00208FDF7BCFF00283DD091
:103660004FF4001218F0040F0A921CBF4FF480129E
:103670000992029A079704A95846FFF7A3FE90B350
:103680009AF8002021780136F3B29A420D442AD9E3
:103690001AF805004319B3F5006F0AEB050447DC7F
:1036A000264B1B78002B91D194F809B0BBF1000F89
:1036B00030D12378D4F80490019304F10C030293E1
:1036C00094F80A80277A09F080439DE718F0020FEA
:1036D000CFD05846FDF77EFF0028C1D1012202213C
:1036E0005846FDF7C3FF0FB0BDE8F08FDDF80CE0E2
:1036F0000122022170460FB0BDE8F04FFDF7B6BFC2
:103700000093FEF72DFBDDF80CB0009BC7B27BE702
:10371000FFF7CABE0122022158460FB0BDE8F04FA4
:10372000FDF7A4BFDDF80CB04FF0804300276BE736
:10373000DDF80CE001220421DCE700BF94570020F3
:103740002DE9F84F5D4B1C7880460D469246002CC3
:1037500065D05B4E44F2343202FB006672B6BFF3B2
:103760004F8FBFF36F8F06F5405906F54C52D9F8CD
:103770001C431C3294424DD0002C4BD0D4E9001293
:103780004A60116062B6BFF36F8FD5E90072B2F183
:10379000804FAA6806BF27F0604747F00047C7F38D
:1037A0000A07B2F1005FAA6908BF47F08047B2F587
:1037B000001F36D01B78287B4FF0000B002B43D026
:1037C0007A0072D501228AF800000C231046237279
:1037D0000C213C4B84F80AB0617213F80830E96997
:1037E000C4F80B705B06C4F80F1056D5514604F1AF
:1037F000130004F0D7FF72B6BFF34F8FBFF36F8F84
:10380000D9F83033C9F8304306F54C562C36C4E9A4
:1038100000631C6062B6BFF36F8FBDE8F88F284E5F
:103820009CE76A691B78287BB2F5801F2A6919BF5B
:103830004FF00A0B02214FF00E0B0621B2F1004FA0
:1038400018BF8B46002BBBD1E3744FF0FF33A3604E
:1038500084F8118084F812B0E760207404F1140336
:103860000AF14002DAF80070DAF80400DAF8081019
:10387000DAF80CC0C3F80CC00AF1100A92451F60B8
:103880005860996003F11003ECD1D5E90623B2F535
:10389000001F0CBF6365E361ADE70730207251463E
:1038A00004F10F0004F07EFFA5E7FEF74BFAC0B26B
:1038B00000F10B03DBB2024689E700BF94570020FA
:1038C00060140020D0030020DFF874C12DE9F84F08
:1038D00092469CF800205B4E80460D461AB144F299
:1038E000343202FB006672B6BFF34F8FBFF36F8FA7
:1038F00006F5405906F54C52D9F81C431C32944247
:103900004ED0002C4CD0D4E900124A60116062B64F
:10391000BFF36F8FD5E90072B2F1804FAA6806BF7E
:1039200027F0604747F00047C7F30A07B2F1005F8E
:10393000AA6908BF47F08047B2F5001F35D09CF850
:103940000020287B4FF0000B002A42D07A006FD570
:1039500001228AF800000C23104623720C213A4BF6
:1039600084F80AB0617213F80830E969C4F80B7082
:103970005B06C4F80F1053D5514604F1130004F050
:1039800011FF72B6BFF34F8FBFF36F8FD9F830338B
:10399000C9F8304306F54C562C36C4E900631C6068
:1039A00062B6BFF36F8FBDE8F88F6A69287BB2F506
:1039B000801F2A6919BF4FF00A0B02214FF00E0B2E
:1039C0000621B2F1004F18BF8B469CF80020002A58
:1039D000BCD1E274A36084F8118084F812B0E7606F
:1039E000207404F114030AF14002DAF80070DAF8E6
:1039F0000400DAF80810DAF80CC0C3F80CC00AF1B9
:103A0000100A92451F605860996003F11003ECD1D1
:103A1000D5E90623B2F5001F0CBF6365E361B0E78B
:103A200007302072514604F10F0004F0BBFEA8E7F6
:103A3000FEF788F9C0B200F10B03DBB202468CE757
:103A40009457002060140020D00300202DE9F04F8F
:103A5000DFF84091504E99F8003044F2343400FBC6
:103A600004F48BB006EB040A0746002B14BF55463E
:103A70003546FDF7D5FD04F54C5808F11408B0445F
:103A800090B372B6BFF34F8FBFF36F8F0AF5405AF2
:103A900004F54C54DAF824B324343444A34520D03C
:103AA000BBF1000F1DD0DBE9002353601A6062B642
:103AB000BFF36F8F3846FDF79BFD02282FD0012200
:103AC00002213846FDF7D2FD72B6BFF34F8FBFF328
:103AD0006F8FDAF81833CAF818B3CBE90083C3F84C
:103AE00000B062B6BFF36F8F2B781BB929463846FA
:103AF000FFF7F0FA44F2343303FB076643F2143362
:103B0000F358434537D005F5405305F54C55D3F8E8
:103B10001C331C35AB4234D00BB0BDE8F08F0BF139
:103B20002C0422460BF108013846FDF723F999F8D9
:103B30000030002BC8D1DBF80C300193DBF81030DB
:103B40000293DBF814300393DBF818300493DBF8AE
:103B50001C300593DBF820300693DBF80830009327
:103B6000FCF782FCDBF8283007902246694638468D
:103B7000FFF7AAFEA8E7002204213846FDF776FDEC
:103B8000C1E70022082138460BB0BDE8F04FFDF731
:103B90006DBD00BF9457002060140020234B1B789C
:103BA000002B42D070B544F23432214E00FB02F2B9
:103BB000B31872B6BFF34F8FBFF36F8F03F5405E3C
:103BC00002F54C531C3306EB030CDEF81C33634543
:103BD00027D033B3D3E900546C60256062B6BFF3DD
:103BE0006F8F40F607341C810C6A9C72C969C3F858
:103BF0000B101049095C11F0400F14BF072103217D
:103C0000197272B6BFF34F8FBFF36F8F02F54C522C
:103C1000DEF83013CEF830332C323244C3E90021C1
:103C20000B6062B6BFF36F8F70BD70479457002072
:103C300060140020D00300202DE9F843DFF8FC9148
:103C40007F4D99F8003006461BB144F2343303FB34
:103C5000005572B6BFF34F8FBFF36F8F05F5405815
:103C600005F54C53D8F81C431C339C4250D0002C13
:103C70004ED0D4E9002353601A6062B6BFF36F8F51
:103C80005022002104F1080004F055FD99F800309D
:103C90003BBB3046FDF7FEFC0278202A04F11407F6
:103CA000034627D0302A00F0C280102A35D1C278CE
:103CB0001AB17A7842F008027A701A791AB17A78D1
:103CC00042F004027A704FF0200C4FF40070002193
:103CD0009A78013A052A29D8DFE802F08B9A6F9585
:103CE00090273046FDF7D6FC0278202A04F10E0713
:103CF0000346D7D1C2781AB17A7842F020027A709E
:103D00001A79002ADFD07A7842F010027A70DAE766
:103D100062B6BFF36F8FBDE8F8834279002AD2D034
:103D20007A7842F040027A70CDE7014699F80000B7
:103D30005A78002847D1D00648BF41F0010112F05F
:103D4000080F78786DD040F0010078705A7812F042
:103D5000040F03D040F0020078705A7841F004015B
:103D6000B8787A71002858D0DA78BA711B7941F0A6
:103D70000801FB71082341F0005123744FF0FF3319
:103D8000E1606674A360FCF76FFBE06172B6BFF39D
:103D90004F8FBFF36F8FD8F83033C8F8304305F535
:103DA0004C552C35C4E900531C6062B6BFF36F8FCD
:103DB0003046BDE8F843FDF735BD99F800005A7864
:103DC00061460028B7D07A71DA78BA711B79FB7135
:103DD00040F612532381C4F80A10FCF745FB194B37
:103DE000C4F816009B5D5B06D0D4237A043B237293
:103DF000CCE7BA7842F00402BA7097E7BA7842F09A
:103E00000802BA7092E7BA7842F01002BA708DE7F1
:103E1000BA7842F00202BA7088E7DA78BA711B7990
:103E2000A7E712F0040F95D1002899D096E74FF03C
:103E3000600C4FF4107040214AE700BF94570020F7
:103E400060140020D0030020034672B6BFF34F8FEA
:103E5000BFF36F8F0068834208D018B1D0E9002308
:103E600053601A6062B6BFF36F8F7047002062B66E
:103E7000BFF36F8F704700BF024B44F2343202FB36
:103E800000307047601400201649174B70B50120B0
:103E900000244FF47F42087020461C709A80FFF780
:103EA000EBFF124B047005461878114E114900F0D3
:103EB0000F034022CC54337803F00F03CC5402217B
:103EC000FEF7C2FC307840220221FEF7BDFC05F56A
:103ED0006C5130784FF40062BDE870403431FEF729
:103EE0001FBD00BF9657002098570020800100207A
:103EF0007C010020A057002008B5FEF7E9FE002055
:103F000008BD00BF70B50E4A00F00F030546D65C31
:103F10003046FFF7B1FF0B4B1B7800F56C54002BBC
:103F200004F1340414BF304600202146FFF73EFB65
:103F30004FF4006221462846FEF7F2FC002070BDD7
:103F4000A05700209457002010B500F00F030A4A34
:103F50000446D05CFFF790FF437823B903F0FF02DB
:103F60000270002010BD0022427011462046FEF76C
:103F7000C7FC002010BD00BFA057002010B5074CA3
:103F800023784BB1064B1878FEF76EFC054B18787A
:103F9000FEF76AFC00232370002010BD9657002016
:103FA000800100207C01002038B5027802F0600317
:103FB000202B0CD0402B27D00BB1002038BD4378EC
:103FC0000A2BFAD101211C48FEF7E0F9F5E78388B6
:103FD000012B1CD102F01F04012C1CD14378032BB0
:103FE0001ED0042B21D0B3B9144D4FF47F422B7057
:103FF000AA80FDF703FE0228DFD03C2817BF0A2362
:104000002C712B716871D8E78388012B03D0FEF7E0
:1040100043FD0028D1D10020FEF78AF9002038BDE9
:1040200006210648FEF7B2F9C7E7044B00214FF41A
:104030007F4219709A80C0E795570020985700205A
:1040400000B583B0382000210190402301AA084622
:10405000FEF7CCFBD8B1402301AA00218020FEF757
:10406000C5FBA0B10B4A40231078002101AAFEF73E
:10407000BDFB60B1084A40231078012101AAFEF778
:10408000B5FB80F001004000C0B203B000BD0220CB
:1040900003B000BD800100207C010020072808D863
:1040A000042803D80ED10848FEF74CB90748FEF79C
:1040B00049B9EE2806D108B50548FEF743F9202393
:1040C000037408BD00207047249200081092000875
:1040D0004092000838B51E4C1E481F49FEF71CF9D7
:1040E00094F8A40210F01E0004D194F8A532202BFD
:1040F00002D038BD002038BDB4F8A632012BF8D864
:10410000B4F8A832042B1AD0052BF2D10146FEF7E1
:1041100019F912499222054604F044FBB4F8A6327C
:10412000012B04BF322385F84630B4F8AA12922935
:10413000284628BF9221FEF729F9012038BDB4F89E
:10414000AA120748402928BF4021FEF71FF9F4E7CB
:104150003C060020E0080020840B002038000020EE
:10416000CC000020114B70B51D780E4614469DB151
:104170000546FFF781FE01230370A4B104F03F035D
:10418000B3FA83F35B094370094B2246585D31460D
:10419000BDE87040FEF7B4BB2846FFF76DFE012373
:1041A0000370002CEAD12346EDE700BF94570020AE
:1041B00080010020704700BF704700BF10B5094B59
:1041C0004FF0FF3200249A639C631A641C649A6265
:1041D0009C62DA62DC621A631C63FFF7EDFF204623
:1041E00010BD00BF0010024038B50F4B1B680BB963
:1041F000012038BD0D494FF47A720546B2FBF3F346
:104200000868B0FBF3F000F0B7F804460028EFD1DF
:104210000F2DEDD8024629464FF0FF3000F064F82C
:10422000034B20461D6038BD84010020040000209F
:10423000880100200A4A136823F4806310B5032024
:10424000136000F03FF80020FFF7CEFF10B101240B
:10425000204610BD0446FFF7ADFF204610BD00BF4D
:1042600000200240034A0449136809680B441360A4
:10427000704700BFB057002084010020014B186830
:10428000704700BFB057002038B50446FFF7F6FF6F
:10429000631C054602D0044B1B681C44FFF7EEFF6D
:1042A000401BA042FAD338BD84010020004870476B
:1042B00000050201024B1868C0F30B00704700BFF5
:1042C000002004E00749CA6803024FF6FF0003F428
:1042D000E0630240134343F0BF6343F40033CB6019
:1042E000704700BF00ED00E01A4BDB68C3F3022308
:1042F00000B5C3F1070EBEF1040F03F1040C28BF93
:104300004FF0040EBCF1060F1BD9A3F1030C4FF0C4
:10431000FF3303FA0CF322EA03024FF0FF3303FAF0
:104320000EF321EA030303FA0CF313431B010028E5
:10433000DBB209DB00F1604000F5614080F800333A
:1043400000BD00229446E8E7034A00F00F00024453
:10435000137600BD00ED00E0FCEC00E0002807DB78
:10436000044A4109012300F01F00834042F8213034
:10437000704700BF00E100E00138B0F1807F01D359
:104380000120704710B44FF0E023064C58614FF005
:10439000F00C84F823C00022072110469A6110BC5B
:1043A0001961704700ED00E0704700BF08B5FFF7E6
:1043B000FBFF08BD704700BF002800F0D98038B56A
:1043C00090F85C30044603F0FF02002B71D02268A5
:1043D000936923F010039361FFF750FF054604E053
:1043E000FFF74CFF401B0A285AD823689A69110727
:1043F000F6D49A6942F001029A61FFF73FFF054641
:1044000004E0FFF73BFF401B0A2849D823689A695C
:10441000D207F6D59A69594942F002028B429A6155
:1044200000F0A180227C012A9A690CBF22F0400290
:1044300042F040029A61627C012A9A690CBF42F400
:10444000804222F480429A61A27C012A9A690CBFC0
:1044500022F4805242F480529A619A69A068E1681D
:1044600022F4407202439A619A6922F0A4029A618E
:104470001A69012922F010021A611FD011B3022912
:104480009A6977D042F080029A611A69032942F052
:1044900010021A6116D19A6942F020029A6111E065
:1044A000236E032243F00103236684F85C2001207D
:1044B00038BD80F85D20FFF77DFF88E79A6942F0FC
:1044C00004029A61D4E90612013A0139120242EA61
:1044D0004162216A01390A436169013942EA0142B4
:1044E000B0F5407FDA610ED1D4E90B02A16A013A3E
:1044F00001381201013942EA00220A43616A013996
:1045000042EA0142DA60D3F8C020E06B616BA56B30
:104510000243C3F8C020D3F880201948206422F455
:10452000F81242EA0142C3F88020D3F880201549EE
:10453000616422F0706242EA0562C3F88020124B87
:10454000124A4031C4E91213F033C4E914230021A4
:104550004FF4547204F0EFF800200123206684F831
:104560005C30A06538BD0A4A6168C2F8001559E799
:104570000120704742F020029A61A3E700640040E6
:1045800000A4004070A4004088A5004060A6004040
:1045900000600040704700BF002847D010B590F879
:1045A0005C200368022A04462FD19A6942F0010276
:1045B0009A619A69D0073BD49A69D10738D49A692D
:1045C000D20735D49A69D00732D49A69D1072FD44B
:1045D0009A69D2072CD49A69D00729D49A69D1074D
:1045E00026D49A69D20723D49A69D00720D49A692D
:1045F000D1071DD49A69D2071AD4226E032142F042
:104600000102226684F85C1003E0026E42F00802A8
:104610000266DA6D22F003022046DA65FFF7BAFF80
:104620000023236684F85C30184610BD01207047D3
:104630009A6922F010029A619A69100720D59A6946
:1046400011071DD59A6912071AD59A69100717D54F
:104650009A69110714D59A69120711D59A6910073A
:104660000ED59A6911070BD59A69120708D59A6970
:10467000100705D59A69110702D59A691207BCD4AB
:104680009A69002042F0020201219A61A06584F833
:104690005C10BEE790F85C20013A012A034605D978
:1046A000026E42F0020201201A66704770B48A68F6
:1046B0004869D1E90354D1E90061920756B942EA49
:1046C000C56202431B6C42EA0442002070BC43F8FE
:1046D000212070475B6C44EA457443F8314003EB9A
:1046E000C1031043586070BC00207047844690F8A6
:1046F0005C00012807D0DCF8603043F0040301209F
:10470000CCF86030704710B40198DCF8004040EA03
:104710004303D4F8800043EA820242EA011120F008
:104720003F030B43C4F88030002010BC704700BF2B
:1047300090F85C20012A034605D0026E42F0040284
:1047400001201A6670470268136A23F470230B4332
:1047500000201362704700BF90F85C20012A0346D6
:1047600005D0026E42F0040201201A66704702680A
:10477000136A23F003030B4300201362704700BF4A
:10478000034690F85C00012805D01A6E42F004023E
:1047900001201A6670471B6842EA01229A640020D1
:1047A000704700BF90F85C20012A034605D0026ED6
:1047B00042F0040201201A6670470268D36843F48D
:1047C00000030020D360704790F85C20012A034664
:1047D00005D0026E42F0040201201A66704702689A
:1047E000D36823F400030020D360704790F85C2066
:1047F000012A034605D0026E42F0040201201A6627
:1048000070470068022283F85C208269002122F050
:104810000102826108461966704700BF90F85C305B
:10482000022B31D103689A6942F001029A619A69B8
:10483000D1072FD49A69D2072CD49A69D10729D4E9
:104840009A69D20726D49A69D10723D49A69D207E4
:1048500020D49A69D1071DD49A69D2071AD49A69CB
:10486000D10717D49A69D20714D49A69D10711D401
:104870009A69D2070ED4036E032243F00103036644
:1048800080F85C2001207047036E43F00803036644
:10489000012070479A6922F010029A619A69110703
:1048A00020D59A6912071DD59A6911071AD59A69F8
:1048B000120717D59A69110714D59A69120711D5ED
:1048C0009A6911070ED59A6912070BD59A691107D3
:1048D00008D59A69120705D59A69110702D59A6910
:1048E0001207C8D49969002241F002014FF0010C6F
:1048F0009961826580F85CC010467047F0B590F809
:104900005C30022B86460BD10568D5F8C43013F411
:10491000001C0BD0036E43F4007303660120F0BD4E
:10492000036E43F0080303660120F0BDD5F8C460B0
:104930004B680F6988680C68C6F30146002B37D1B5
:10494000074347EA8447D1E9060303434869CC6833
:104950000343086A43EA006343EA0443DEF8540071
:1049600006EBC60440F8347000EBC400134C4360FF
:10497000CB68E35CA3B19378D7781B0443EA076361
:1049800017783B43577843EA07230CEB00070CF1F9
:10499000040CBB60CB68E35C9C4502F10402EAD3E3
:1049A0000123B340C5F8CC300020CEF85830F0BD1C
:1049B0002743074347F08047C5E700BF64920008DC
:1049C00090F85C20022A034605D0026E42F00802ED
:1049D00001201A66704703680020C3F8D0107047A2
:1049E000F0B590F85C40022C0CD1402905680FD03E
:1049F000D5F8984024076DD1036E43F480730366A5
:104A00000120F0BD036E43F0080303660120F0BDF2
:104A1000D5F890402607EFD0D5F8904014F0807478
:104A200018BFD5F88040D5F8907018BFC4F3402463
:104A3000C7F301272744846C07EBC70604EBC604C1
:104A4000266806F080465660D4F800C0002E56D185
:104A5000CCF38A461660266806F0005696602668F3
:104A600006F000461661A688D661B4F806C00CF0C0
:104A70000F0CC2F80CC0666806F4801656616668B2
:104A800006F400169661E67906F07F0616621F4E60
:104A900016F80CE0D4F804C04FEADC7CC2F824C05D
:104AA000BEF1000F10D0013B04F1070EF4461EF8D2
:104AB000015F03F8015FD568ACF1060C755DACEBE6
:104AC000040CAC45F2D3056840291BD0C5F89C7096
:104AD0000020F0BDD5F8984014F0807418BFD5F8C8
:104AE0008040D5F8987018BFC4F30024C7F301279D
:104AF0002744C46C07EBC70604EBC604A0E72CF000
:104B00006046A7E7C5F89470E2E700BF649200082A
:104B100090F85C30022B0CD170B40468D4F8E43007
:104B20005B070CD1036E43F48073036670BC0120F5
:104B30007047036E43F00803036601207047D4F802
:104B4000E430006DC3F3012300EBC30250F833508F
:104B500005F080454D6050F833602DB326F0604677
:104B60000E6050F8335005F000558D6050F833005A
:104B700000F0004008619088C861D08800F00F0004
:104B8000C860506800F480104861506800F400105C
:104B90008861506800F440004862D2790A620020BF
:104BA000C4F8E83070BC7047C6F38A46D8E700BF47
:104BB00003685B6C10B4C3F3022203F00704C1E97D
:104BC000004203F01804C3F34012C1E90242C3F3E8
:104BD0008014C3F3C012C1E90442C3F3C024C3F379
:104BE0000032C1E90642C3F34034C3F38032C3F359
:104BF0000643C1E90842002010BC8B62704700BF29
:104C000003681B6C10B4C3F30622DCB2C1E9004296
:104C1000C3F3C032C3F307430020C1E9022310BC31
:104C2000704700BF0368D3F8C40000F00700704766
:104C3000034690F85C000138012805D91A6E42F04D
:104C4000020201201A6670471B68012A9A6D0CBF88
:104C50008A430A439A650020704700BF034690F8D4
:104C60005C000138012805D91A6E42F002020120C9
:104C70001A6670471B6870B411F00705986D01F053
:104C8000380420D0C6071ED4DD6D45F00105DD6572
:104C90000CB384071FD5D86D40F00200D8650C0610
:104CA00004D5D3F8DC001043C3F8DC00C80504D5F4
:104CB000D3F8E0000243C3F8E0205A6D0A43002015
:104CC00070BC5A65704704B386071ED4DE6D46F08B
:104CD0000106DE6525BB11F4E07F01D04607DAD47A
:104CE00011F4F05F01D00507D5D411F4604F01D065
:104CF000C406D0D411F4403F01D08606CBD411F4C1
:104D00007C0FCCD04506C6D4C9E711F4E07F0AD0A9
:104D1000460708D4DE6D46F00106DE65002DB7D0EB
:104D2000C507B5D5B7E711F4F05F01D00607F1D597
:104D300011F4604F01D0C606ECD511F4403F01D00C
:104D40008606E7D511F47C0FE8D04606E2D5002DA3
:104D50009ED0E5E7704700BF704700BF704700BFB7
:104D6000704700BF704700BF704700BF704700BF6B
:104D7000704700BF704700BF704700BF2DE9F84F74
:104D800003681A6D596D02EA010A1A6D596D02EA3B
:104D900001091A6D596D1E6D02EA01085A6D1F6DE9
:104DA00016405A6DD3F854B01D6D1740690604467D
:104DB0000AF4E05A09F0070908F0380806F4710609
:104DC00007F4602702D51BF0400F72D1EA0502D527
:104DD0001BF4807F5DD1BAF1000F4AD1B9F1000F09
:104DE00035D1B8F1000F3CD1AB0502D51BF4007FE3
:104DF00074D1280602D51BF0800F77D1A90402D503
:104E00001BF4005F5AD12A0402D51BF4004F5DD178
:104E10006B040AD51BF4804F07D023684FF48042FF
:104E20001A65236E43F0800323664FB926B12368C9
:104E30001E65236E33432366236E2BBBBDE8F88FBC
:104E4000236839461F652046FFF796FFEEE7236883
:104E50004946C3F850902046FFF77EFFB8F1000F97
:104E6000C2D023684146C3F850802046FFF776FF42
:104E7000BAE723685146C3F850A02046FFF76AFFFF
:104E8000B9F1000FADD0E2E72046FFF773FFBDE8B0
:104E9000F88F2368D3F8D810D3F8E0204FF480704F
:104EA000186511402046FFF75FFFBAF1000F95D05B
:104EB000DFE740221A65FFF75BFF87E723684FF4BF
:104EC00000521A652046FBF7A1FA9CE723684FF4CD
:104ED00000421A652046FFF749FF99E723684FF41F
:104EE00000721A652046FFF73BFF82E72368D3F87C
:104EF000D410D3F8DC208020186511402046FFF73D
:104F000031FF7BE72DE9F047DFF85C819A4698F89E
:104F10000030012B5DD0012381460E46174688F8EC
:104F20000030FFF7ABF9514D044606E0FFF7A6F954
:104F3000A0EB040CBCF57A7F44D82B69D803F5D4D8
:104F40002C694CF2FA331C4055D12B69474AD907DA
:104F500044BF01232B610023C8F80430136813F405
:104F600080631FBF136823F480631360022388F8F3
:104F70001C30B9F1000F30D009F1FF33012B42D9B9
:104F8000FFF77CF9394E054605E0FFF777F9401B3E
:104F9000B0F57A7F2DD83369DA03F6D433694CF251
:104FA000FA32134050D13369DB0744BF0123336128
:104FB000002724B12D4A536923EA0403536100F00A
:104FC00049FB00E00327002388F800303846BDE89D
:104FD000F08702273846BDE8F087244A536943F03A
:104FE000010353613760BFF36F8F0124C6F804A03B
:104FF000C6E70327DDE7D8F804302343C8F80430B8
:1050000001272C61DFE719494A6942F480223B46B7
:105010004A61EFF3108572B6F61B042E1CD007F51B
:1050200080741868596898519A190833A3425160DE
:10503000F7D185F31088A9F10209B9FA89F94FEA85
:1050400059194FEA89449BE7D8F804201A43C8F855
:10505000042001273361ACE707F580723B6847F80D
:10506000043FBA42FAD1E4E78C010020002002405C
:10507000064B5A69002A01DB002070470449054AA3
:1050800099609A605869C00F704700BF00200240C5
:1050900023016745AB89EFCD044B5A6942F00042CA
:1050A0005A615869C043C00F704700BF00200240DA
:1050B000064B586910F0804006D00549054AD96072
:1050C000DA605869C0F38070704700BF002002406A
:1050D0003B2A19087F6E5D4C054B5A6942F08042AD
:1050E0005A61586980F08040C0F38070704700BFFB
:1050F0000020024070B50546FFF7C0F80F4E044689
:1051000004E0FFF7BBF8001BA8420ED83369DA03AE
:10511000F7D433694CF2FA32134008D13369DB0714
:1051200044BF01233361002070BD032070BD0449DA
:105130004A681A434A600120336170BD0020024072
:105140008C0100202DE9F843534F3B78012B7AD096
:10515000814601244FF47A7088463C70FFF7CAFFFD
:10516000064620B100233B703046BDE8F8834B4B28
:1051700078601A6812F4007F1A6868D1520540F10D
:1051800089801A6822F480621A6002233B77D9F87A
:105190000030012B64D04FF0FF33C8F80030D9E95C
:1051A00002532B449D4224D23C4C05E0D9E9023203
:1051B00001351344AB421CD96269EB0022F4FC7246
:1051C00003F4FF6313436361636943F002036361A4
:1051D000636943F4803363614FF47A70FFF78AFFA9
:1051E000636923F4FD7363610028DFD0C8F80050C1
:1051F00006463B7F03F0FD02012ADBB210D1274AAD
:10520000116821F400711160116841F400611160AE
:10521000116821F400611160116841F4007111609E
:10522000023B012B0CD81D4B1A6842F480521A60C5
:105230001A6822F480521A601A6842F480621A6076
:1052400000233B778EE702263046BDE8F883510500
:105250001ED51A6822F480621A6003233B7796E712
:10526000D9F80430DB0704D50C4A536943F0040332
:1052700053610A4C636943F4803363614FF47A707D
:10528000FFF738FF636923F0040306466361B0E764
:105290003C777CE738777AE78C01002000200240D9
:1052A0002DE9F843A74E3378012B00F064810125E6
:1052B00035700368002213EA05070446726040F067
:1052C00003819A0700F1F7805D076BD4190708D4B2
:1052D0009A063BD4DB065BD4002333703846BDE826
:1052E000F883D4E90885A845F2D04FF47A70D4F851
:1052F0001C90FFF7FFFE002840F00D8119F0010F10
:105300000FD09149914A4B6A08F17848134043EA1B
:10531000D8034B628B6A05F17845134043EAD50305
:105320008B62894A916A4B4661F31E03936253690B
:1053300043F4003353614FF47A70FFF7DBFE2368C8
:10534000002818BF47F001079A06C3D54FF47A70BA
:10535000D4E90B58FFF7CEFE002840F0D980012D8C
:1053600006D1794A136F23F07F0343EA08031367DA
:10537000754A536943F4003353614FF47A70FFF771
:10538000B9FE2368002818BF47F00107DB06A3D544
:105390004FF47A70A46AFFF7ADFE002800F0D880C1
:1053A000012799E74FF47A70D4E90558FFF7A2FE78
:1053B000002840F0AA8015F0010300F0E08008F416
:1053C000E0634FF4B8514FF4E062A80703D50A46F2
:1053D00008F480510B43680704D508F4005142F4E7
:1053E00000520B43E90404D508F4804142F48042A2
:1053F0000B43280704D508F4803142F480320B4374
:10540000E90604D508F4003142F400320B43A80643
:1054100004D508F4802142F480220B43690604D5A8
:1054200008F4002142F400220B43A80504D508F437
:10543000000142F400020B43690504D508F08071B5
:1054400042F080720B43280504D508F0007142F049
:1054500000720B43A90404D508F0806142F0806219
:105460000B43680404D508F0006142F000620B436E
:10547000290404D508F0405142F040520B43E803A0
:1054800005D508F0804843EA080342F080422E4DDB
:10549000296A21EA020213432B626B6943F4003349
:1054A0006B614FF47A70FFF725FE2368002818BF60
:1054B00047F001070AE74FF47A702569FFF71AFEF3
:1054C00060B323680127FFE6D0E901874FF47A70C3
:1054D000D4F80C90FFF70EFEA0B9B8F1000F52D12E
:1054E000194B47EA0947DF62174A536943F400330F
:1054F00053614FF47A70FFF7FDFD071E236818BF54
:105500000127DEE623682F46DBE623680127DDE678
:1055100023680127DEE623680127D9E60A4A136AD1
:1055200023F0FF032B431362536943F400335361A9
:105530004FF47A70FFF7DEFD2368002818BF47F0AC
:105540000107C1E68C0100200020024000C0FFFFDF
:10555000114A136F23F4803323431367536943F4D1
:1055600000334FF47A705361FFF7C4FD002818BF71
:1055700047F00107B0E602273846BDE8F8831A462F
:105580004FF4805121E7B8F1010FADD1024B47EA4A
:1055900009471F63A8E700BF0020024043680622B6
:1055A000012B10B402603AD9284B1B6ADBB2AA2B3C
:1055B00003D0CC2B0CBFCC23BB23244903610B6A43
:1055C000C46923F0FF03012C836114D14C6A204B82
:1055D00003EAC40404F1006404628C6A03EAC403AD
:1055E00003F1006343628B6A03F0004343F001035D
:1055F00042F00802C36142F01003144903600B6FCC
:10560000C46A03F48033012C836206D142F0300275
:1056100002600B6F03F07F03036310BC7047072227
:1056200002600A4A4BB9D36A03F03F038360D36A2E
:10563000C3F30543C3600722B6E7136B03F03F03D0
:105640008360136BC3F30543C360F4E7002002409B
:10565000F8FF010015490B7F03F0FD02012ADBB2C0
:1056600010D1134A106820F400701060106840F4E4
:1056700000601060106820F400601060106840F452
:1056800000701060023B012B0CD8094B1A6842F4E1
:1056900080521A601A6822F480521A601A6842F422
:1056A00080621A6000230B77704700BF8C010020D6
:1056B000002002400B68002B00F0C4812DE9F04F60
:1056C000B0F1904F85B04FF000024FF0010B00F0A9
:1056D000E880DFF848C30BFA02FE1EEA030A00F076
:1056E00084804D6805F003075400032607F1FF3856
:1056F000A640B8F1010F6FEA06067ED9032F0BD042
:10570000D0F80C80D1F808E008EA06080EFA04FE8A
:105710004EEA080EC0F80CE007FA04F407683E40B1
:10572000344315F4403F04605FD0BD4E346E44F006
:1057300001043466346E04F001040394039C22F0E7
:10574000030404F1804404F5803402F00307A668E2
:10575000BF004FF00F0E0EFA07FE26EA0E06DFF826
:10576000C4E2704500F09780DFF8BCE2704500F0BD
:105770008C80DFF8B8E2704500F05E81DFF8B0E2BF
:10578000704500F06081DFF8ACE270450CBF4FF06F
:10579000050E4FF0060E0EFA07F73E43A660DCF842
:1057A00008406FEA0A06EF0254BF34404AEA040494
:1057B000CCF80840DCF80C40AF0254BF34404AEA51
:1057C0000404CCF80C40DCF80440AF0354BF344070
:1057D0004AEA0404CCF80440DCF80040ED0354BF6E
:1057E00034404AEA0404CCF80040013233FA02F4AF
:1057F0007FF471AF05B0BDE8F08FD0F80890D1F814
:105800000C8009EA060908FA04F848EA0908C0F811
:105810000880D0F8048028EA0E08C5F3001E0EFAAE
:1058200002FE4EEA080EC0F804E0D0F80C80D1F871
:1058300008E008EA06080EFA04FE4EEA080E022FF7
:10584000C0F80CE07FF468AF4FEAD20800EB88089C
:1058500002F0070ED8F82090CDF80090D1F8109003
:105860004FEA8E0E09FA0EF9CDF804904FF00F09A9
:1058700009FA0EFEDDF8009029EA0E09DDF804E0D1
:105880004EEA090EC8F820E046E74FF0020E0EFA85
:1058900007F73E4382E74FF0010E0EFA07F73E434B
:1058A0007CE75E4D50E0032C0BD0D0F80C80D1F893
:1058B00008E00AEA08080EFA07FE4EEA080EC0F8E9
:1058C0000CE0BC40076807EA0A073C4316F4403F77
:1058D000046034D0524F3C6E44F001043C663C6E90
:1058E00004F001040394039C22F0030404F18044B7
:1058F00004F5803402F003074FF00F0EBF000EFADC
:1059000007F7D4F808E02EEA0707A76016F4801F0F
:10591000AC686FEA0C077DD13C40AC6016F4001F08
:10592000EC6874D13C40EC6016F4003F6C686BD1BD
:105930003C406C60F6032C6863D43C402C60013220
:1059400033FA02F43FF456AF0BFA02FE13EA0E0CE0
:10595000F5D04E6857004FF0030808FA07F806F034
:1059600003046FEA080A04F1FF38B8F1010F9AD86E
:10597000D0F80890D1F80C800AEA090908FA07F86B
:1059800048EA0908C0F80880D0F8048028EA0E0820
:10599000C6F3001E0EFA02FE4EEA080EC0F804E03E
:1059A000D0F80C80D1F808E00AEA08080EFA07FEE1
:1059B0004EEA080E022CC0F80CE082D14FEAD20E5B
:1059C0004FEA8E0E0EF1904E02F00708DEF820909E
:1059D000CDF80090D1F810904FEA880809FA08F93C
:1059E000CDF804904FF00F0909FA08F8DDF800909F
:1059F00029EA0809DDF8048048EA0908CEF8208081
:105A00005FE744EA0C0499E744EA0C0491E744EAAE
:105A10000C0488E74CEA04047FE700BF000401405F
:105A2000001002400004004800080048000C004834
:105A300000100048001400484FF0030E0EFA07F75C
:105A40003E43ABE670474FF0040E0EFA07F73E43B5
:105A5000A4E600BF0AB1816170478162704700BF50
:105A6000002800F0D78010B590F89132044603F07A
:105A7000FF02002B00F0C9800323206884F89132D4
:105A800002F074F82279002A00F0AE8000234FF46F
:105A90008071012AC4E908332182E374A36200F013
:105AA000C08040F20111022AC4E91233218784F830
:105AB0003B30236544D04FF48171032AC4E91C3381
:105AC000A4F8601084F86330A36739D040F2031162
:105AD000042AC4E92633A4F8881084F88B30C4F86B
